:100000000C942A000C9434000C9434000C943400AA
:100010000C9434000C9434000C9434000C94340090
:100020000C9434000C9434000C9434000C94340080
:100030000C9434000C9434000C9434000C94340070
:100040000C9434000C9434000C9434000C94340060
:100050000C94340011241FBECFE5D8E0DEBFCDBF25
:100060000E9436000C94E0010C940000CF93DF93C3
:10007000CDB7DEB72E970FB6F894DEBF0FBECDBF5B
:100080008AE390E02FEFFC0120838BE390E0FC01FA
:10009000108280E090E0AAEFB3E489839A83AB8377
:1000A000BC8320E030E04AE755E469817A818B81A6
:1000B0009C810E944B01DC01CB018D839E83AF8329
:1000C000B88720E030E040E85FE36D817E818F817A
:1000D00098850E94C50088232CF481E090E09A87DF
:1000E00089873FC020E03FEF4FE757E46D817E8175
:1000F0008F8198850E94460118164CF520E030E06B
:1001000040E251E469817A818B819C810E944B019C
:10011000DC01CB01BC01CD010E94CA00DC01CB0196
:100120009A8789870FC080E991E09C878B878B85B0
:100130009C850197F1F79C878B8789859A85019724
:100140009A87898789859A85892B69F714C06D817B
:100150007E818F8198850E94CA00DC01CB019A873D
:10016000898789859A859E878D878D859E8501974C
:10017000F1F79E878D878BE390E02BE330E0F90168
:1001800020812095FC01208384CF0E94F90008F48F
:1001900081E008950E94250188F09F5798F0B92FBB
:1001A0009927B751B0F0E1F0660F771F881F991FAC
:1001B0001AF0BA95C9F714C0B13091F00E943F010E
:1001C000B1E008950C943F01672F782F8827B85F1E
:1001D00039F0B93FCCF3869577956795B395D9F704
:1001E0003EF490958095709561957F4F8F4F9F4F0E
:1001F0000895990F0008550FAA0BE0E8FEEF1616B8
:100200001706E807F907C0F012161306E407F5070A
:1002100098F0621B730B840B950B39F40A2661F07E
:10022000232B242B252B21F408950A2609F4A14021
:10023000A6958FEF811D811D089557FD9058440F9D
:10024000551F59F05F3F71F04795880F97FB991F35
:1002500061F09F3F79F087950895121613061406F2
:10026000551FF2CF4695F1DF08C01616170618067F
:10027000991FF1CF86957105610508940895E8945A
:10028000BB2766277727CB0197F908950E94F900CD
:1002900008F48FEF08950E945E010C94CF010E9434
:1002A000C10138F00E94C80120F0952311F00C9490
:1002B000B8010C94BE0111240C9440010E941D0150
:1002C00070F3959FC1F3950F50E0551F629FF001A9
:1002D000729FBB27F00DB11D639FAA27F00DB11DC2
:1002E000AA1F649F6627B00DA11D661F829F22274B
:1002F000B00DA11D621F739FB00DA11D621F839FD2
:10030000A00D611D221F749F3327A00D611D231FA7
:10031000849F600D211D822F762F6A2F11249F57F5
:1003200050409AF0F1F088234AF0EE0FFF1FBB1FF8
:10033000661F771F881F91505040A9F79E3F5105B7
:1003400080F00C94B8010C9440015F3FE4F3983EB8
:10035000D4F3869577956795B795F795E7959F5F61
:10036000C1F7FE2B880F911D9695879597F90895F3
:1003700097F99F6780E870E060E008959FEF80EC58
:10038000089500240A9416161706180609060895FB
:1003900000240A9412161306140605060895092E61
:1003A0000394000C11F4882352F0BB0F40F4BF2BD0
:1003B00011F460FF04C06F5F7F4F8F4F9F4F089510
:0403C000F894FFCFDF
:00000001FF
