:100000000C942A000C9434000C9434000C943400AA
:100010000C9434000C9434000C9434000C94340090
:100020000C9434000C9434000C9434000C94340080
:100030000C9434000C9434000C9434000C94340070
:100040000C9434000C9434000C9434000C94340060
:100050000C94340011241FBECFE5D8E0DEBFCDBF25
:100060000E9436000C9405020C940000CF93DF939D
:100070001F92CDB7DEB7CE0101960E944400CE019B
:1000800001960E945A00FBCFCF93DF9300D0CDB7EB
:10009000DEB79A8389838AE390E02FEFFC01208307
:1000A0008BE390E0FC01108200000F900F90DF9135
:1000B000CF910895CF93DF93CDB7DEB760970FB69A
:1000C000F894DEBF0FBECDBF988B8F8780E090E0A5
:1000D000AAEFB3E489839A83AB83BC8320E030E04A
:1000E0004AE755E469817A818B819C810E94700185
:1000F000DC01CB018D839E83AF83B88720E030E0A5
:1001000040E85FE36D817E818F8198850E94EA00DF
:1001100088232CF481E090E09A8789873EC020E014
:100120003FEF4FE757E46D817E818F8198850E9474
:100130006B01181644F520E030E040E251E469819B
:100140007A818B819C810E947001DC01CB01BC0112
:10015000CD010E94EF00DC01CB019A878987898558
:100160009A85892B21F180E991E09C878B878B858B
:100170009C850197F1F79C878B8789859A850197E4
:100180009A878987ECCF6D817E818F8198850E94C7
:10019000EF00DC01CB019A87898789859A859E8744
:1001A0008D878D859E850197F1F79E878D878BE3DF
:1001B00090E02BE330E0F90120812095FC012083C1
:1001C000000060960FB6F894DEBF0FBECDBFDF9182
:1001D000CF9108950E941E0108F481E008950E94C5
:1001E0004A0188F09F5798F0B92F9927B751B0F07E
:1001F000E1F0660F771F881F991F1AF0BA95C9F7AB
:1002000014C0B13091F00E946401B1E008950C94E3
:100210006401672F782F8827B85F39F0B93FCCF396
:10022000869577956795B395D9F73EF49095809527
:10023000709561957F4F8F4F9F4F0895990F0008DC
:10024000550FAA0BE0E8FEEF16161706E807F907A8
:10025000C0F012161306E407F50798F0621B730B43
:10026000840B950B39F40A2661F0232B242B252BC4
:1002700021F408950A2609F4A140A6958FEF811D67
:10028000811D089557FD9058440F551F59F05F3F49
:1002900071F04795880F97FB991F61F09F3F79F0A8
:1002A00087950895121613061406551FF2CF46952A
:1002B000F1DF08C0161617061806991FF1CF8695AC
:1002C0007105610508940895E894BB276627772790
:1002D000CB0197F908950E941E0108F48FEF08954D
:1002E0000E9483010C94F4010E94E60138F00E9400
:1002F000ED0120F0952311F00C94DD010C94E30145
:1003000011240C9465010E94420170F3959FC1F382
:10031000950F50E0551F629FF001729FBB27F00DB3
:10032000B11D639FAA27F00DB11DAA1F649F662708
:10033000B00DA11D661F829F2227B00DA11D621F57
:10034000739FB00DA11D621F839FA00D611D221F11
:10035000749F3327A00D611D231F849F600D211DF5
:10036000822F762F6A2F11249F5750409AF0F1F078
:1003700088234AF0EE0FFF1FBB1F661F771F881FE1
:1003800091505040A9F79E3F510580F00C94DD013B
:100390000C9465015F3FE4F3983ED4F3869577951E
:1003A0006795B795F795E7959F5FC1F7FE2B880F87
:1003B000911D9695879597F9089597F99F6780E81D
:1003C00070E060E008959FEF80EC089500240A94A7
:1003D0001616170618060906089500240A94121620
:1003E0001306140605060895092E0394000C11F453
:1003F000882352F0BB0F40F4BF2B11F460FF04C000
:0E0400006F5F7F4F8F4F9F4F0895F894FFCF8F
:00000001FF
